:020000040001F9
:10B00000C8320020D5B00100EFB00100F1B001005E
:10B010000000000000000000000000000000000030
:10B02000000000000000000000000000F3B001007C
:10B030000000000000000000F5B00100F7B00100C2
:10B04000ADB30100F9B00100E9B40100F9B00100AD
:10B05000F9B001000000000019B20100F9B00100D0
:10B06000F9B00100F9B00100F9B00100F9B0010038
:10B07000F9B00100F9B00100F9B00100F9B0010028
:10B08000F9B0010001B40100F9B00100F9B001000C
:10B0900021B40100F9B0010029B40100F9B00100A8
:10B0A000F9B00100F9B0010000000000000000004C
:10B0B0000000000000000000000000000000000090
:10B0C0000348854600F06AF80048004739E501006A
:10B0D000C83200200321094802680A430260084878
:10B0E00002680A4302600748804707480047FEE7B6
:10B0F000FEE7FEE7FEE7FEE7FEE70000240500406E
:10B100005405004049B40100C1B0010030B50B4600
:10B11000014600202022012409E00D46D5409D4231
:10B1200005D31D469540491B2546954040191546B7
:10B13000521E002DF1DC30BD03460B439B0703D0AC
:10B1400009E008C9121F08C0042AFAD203E00B78EC
:10B150000370401C491C521EF9D27047D2B201E064
:10B160000270401C491EFBD270470022F6E710B562
:10B1700013460A4604461946FFF7F0FF204610BD65
:10B1800030B504460020034600E05B1C934203D226
:10B19000E05CCD5C401BF8D030BD0000064C0125C2
:10B1A000064E05E0E36807CC2B430C3C984710346F
:10B1B000B442F7D3FFF788FFF4190200141A020013
:10B1C00070B58C180578401C6B075B0F01D10378B4
:10B1D000401C2A1106D10278401C03E006780E704C
:10B1E000401C491C5B1EF9D12B0705D40023521EBD
:10B1F0000DD40B70491CFAE70378401CCB1A921C43
:10B2000003E01D780D70491C5B1C521EF9D5A1424C
:10B21000D8D3002070BD0000F0B50025FF268BB00C
:10B22000013601242F460195304603F08FFC00289B
:10B2300007D048484068204203D0304603F07EFCE7
:10B240002543361D64007F1CB6B2042FECD3FF24C7
:10B250007D34204603F07AFC002807D0204603F016
:10B260006DFC600705433C48006901903B4C280792
:10B2700014D0012700262F420CD03948B2001118F3
:10B2800008690969C004C00E8903A258890F002A01
:10B2900000D090477F00761C042EECD3002D57DAA7
:10B2A00000200590401E4DE0A11940310878850628
:10B2B000AD0E42B2521C39D00121A940089A00912A
:10B2C000114233D080090390284601F0BBFA800078
:10B2D00020580490002802D10398032826D103980F
:10B2E0000099032802D10598084305901D4AA8003B
:10B2F00080180068019A8003800F114202D0022852
:10B3000002D013E0032811D10399032907D10228A1
:10B310001CD00221284603F001FC7F1CFFB20498D8
:10B32000002803D0049A284603999047761C042EDF
:10B33000BAD3002F0CD0084800690199884207D081
:10B340000190059800273E460890ADE70321E1E70C
:10B350000BB0F0BD0063004000050050C028002085
:10B3600000650040000700508307FF22DB0E9A4073
:10B370008907090E994000280BDA0007000F0838EA
:10B38000830808489B001818C36993430B43C361A3
:10B390007047830804489B001B18186890430843B3
:10B3A0001860704700ED00E000E400E0F8B5FF2011
:10B3B000013003F035FA002401250E4E0E4F00280F
:10B3C00007D00E4804600120B0607D70002001F0BD
:10B3D0007BFAFF20053003F023FA002808D0074845
:10B3E000001D04600220B060BD70012001F06CFA05
:10B3F000F8BD000000030040AC2800200001004020
:10B4000010B506490020086048608860C86003499C
:10B4100040390860486005F021FF10BD401101402F
:10B4200010B505F08DFE10BD10B506484068002827
:10B4300005D08047002801D000F046FA10BD02F088
:10B440001FFD10BD1421002010B502F067FD00287B
:10B4500005D01F491D484860C8131E4988611E4811
:10B46000018CC9B201290BD1828C120708D1028D3F
:10B470001206120F042A03D1828D1206120F0AD06F
:10B48000012921D1818C09071ED1018D0906090FDF
:10B490000A2904D007E0114A01219160F5E7828D65
:10B4A0001206120F05D00D290ED1808D0006000F57
:10B4B0000AD10B480168012904D00A4901600168DA
:10B4C0000129FCD1C021416110BD0000DFFF07C090
:10B4D00000050040006C0040C00F00F00006004076
:10B4E00000EC06407593000010B50249024805F0D3
:10B4F00010FF10BD082900200020004030B4744621
:10B50000641E2578641CAB4200D21D46635D5B005F
:10B51000E31830BC184702E008C8121F08C1002A0F
:10B52000FAD170477047002001E001C1121F002AC4
:10B53000FBD17047202804DA0121814003480142F1
:10B5400001D001207047002070470000FC06FFBCBE
:10B5500010B500280CD000290AD002780B789A4246
:10B5600006D10622401C491CFFF70AFE002801D024
:10B57000002010BD012010BDF7B584B0064600259F
:10B580001788158020300290407B1446002806D092
:10B590003A462146059800F007FE050009D1B0782B
:10B5A000002823D0059886462088001DB84202D97D
:10B5B0000C2007B0F0BD684679DF0028F9D121885A
:10B5C00003207246505420881921401C80B22080EC
:10B5D000115420887146401C80B220804118684672
:10B5E000008805F02AFF218840182080F078002884
:10B5F00017D0218803230A46F356C91C0598B9427F
:10B60000D6D80221815421880122491C89B2218087
:10B6100042542188491C89B2218043542088401C0F
:10B6200020807068002817D021880023C3560A465E
:10B63000C91C0598B942BBD80221815421880A222D
:10B64000491C89B2218042542188491C89B2218039
:10B6500043542088401C2080308900280AD0009460
:10B6600030460197062202210830059B05F03EFF77
:10B6700005009ED1308A00280AD0009430460197F8
:10B68000072203211030059B05F030FF050090D103
:10B69000308B00280AD000943046019715221421DF
:10B6A0001830059B05F022FF050082D1306A002882
:10B6B00006D03B462246059901F06EF90500D8D127
:10B6C000706A002806D03B462246059902F0DCFF4E
:10B6D0000500CED10298007B002807D03B462246C9
:10B6E0003046059905F0C4F90500C2D1307800282C
:10B6F00007D03B4622463046059902F0F9FF050087
:10B70000B7D1284655E70000174A0021535C002BAB
:10B7100001D0012203E0491C0629F7D30022134976
:10B72000012806D002280BD0032810D0042818D1F5
:10B7300012E04878002803D0002A01D00120704789
:10B740008878002803D0002A01D002207047C878EA
:10B75000002801D0032070470879002801D0042078
:10B760007047002070470000292000206822002038
:10B7700010B501220221002000F090FE002801D027
:10B78000072812D107220221012000F087FE00289D
:10B7900001D0072809D100210A22084600F07EFEC8
:10B7A000002801D0072800D1002010BDF0B50F46B9
:10B7B0008DB0002116466D460F24621A825C6A54D1
:10B7C000491C1029F9D328460D211030FFF7CDFC74
:10B7D0000020221A395C5219401C11740328F8D336
:10B7E00068464DDF0020211A49192031097831546B
:10B7F000401C0328F7D30DB0F0BD00000448426898
:10B800000121C9050B46934383600A40C26070471B
:10B810000005005070B50024064D06E06968E000A0
:10B82000085C012103F08AF8641C28788442F5D36F
:10B83000002070BDB8200020F8B515460C4606461D
:10B84000052A01D20720F8BD03F04EF9002803D1E4
:10B8500003F01CF90028F6D1104900204E600C704E
:10B86000C8608D6008610E4D0DE0E00069688019C8
:10B87000009181786A46517000780A4A694603F05F
:10B88000A9F80028DFD12046641EE4B20028ECD1DC
:10B89000054A0021024800F023F8F8BDB820002036
:10B8A000D819020075D8010035CB0100BFF34F8FC6
:10B8B00004490348C860BFF34F8F00BFFDE7000095
:10B8C0000400FA0500ED00E00EB5002102900091A1
:10B8D0006A4601910148FFF7E9FF0EBD01400000F3
:10B8E000094B5B68002B07D0002A07D0002805D041
:10B8F0000068037C002B03D00820704707207047A6
:10B900004174426100207047DC200020FFB50746EB
:10B910009007002581B01E461446002825D1002C32
:10B9200023D004F01DFE3046114EF060304610303A
:10B93000057045700299817044607560357001240E
:10B940000C4875702405046003211420FFF70CFDDA
:10B9500009480460094CA76003211120FFF704FD8A
:10B960006068B060002005B0F0BD0720FBE7000074
:10B97000CC20002080E200E000E100E00015014062
:10B98000FEB51F4B5B68002B30D000282ED0052958
:10B9900001D20720FEBD4369002B27D0437C012B39
:10B9A00026D00027029104460025694616460D70F0
:10B9B000684600F03DF801A805F082FD002819D086
:10B9C000012101700F494460496881600299076153
:10B9D0004661C16068460A49007948706846007847
:10B9E00000F044F805F0EEFB2846FEBD0820FEBD41
:10B9F0000F46D7E768460425007800F037F8F3E7EC
:10BA0000DC2000200015014010B5084949680029D4
:10BA10000AD0002808D04169002905D0002101740E
:10BA2000022105F0F7FB10BD082010BDDC2000202E
:10BA300030B5EFF3108172B6094A54680123002C27
:10BA400004D00370002900D162B630BD5360054BAD
:10BA50001D68054C254015601C6000220270F1E74E
:10BA6000F020002080E100E0FC06FFBC08494A68A5
:10BA7000002A0CD000280AD1EFF3108072B60A68B1
:10BA8000044B1A6000224A60002800D162B6704759
:10BA9000F020002000E100E0F0B504468BB0008803
:10BAA00000F01EFB0590208802F058F90646A068B9
:10BAB0000090657A684605741E4F20880022397808
:10BAC00000F05EFB0598002831D06079400710D562
:10BAD0000721304603F0F8FB002813D008226946FE
:10BAE0000A7422884A828E82069004A801F012F914
:10BAF00008E02088B97800F031FB002802D03046F9
:10BB000002F016F90321684601712188C18060792D
:10BB10004007C10F68460172A0794007C10F68460F
:10BB2000417201788172C57201A801F0F3F80BB07F
:10BB3000F0BD00009C200020F0B50C4693B01F2102
:10BB40006A461180072600279180002809D0C17815
:10BB500049070DD502A9FFF70FFD002809D102AD55
:10BB600001E000251780002C0ED0E078002802D0DC
:10BB7000304613B0F0BD01AA0AA92046FFF7FCFC2D
:10BB80000028F6D10AAA02E06846002287806846AB
:10BB90008088C3B268460088C1B2284672DFE8E7F1
:10BBA000FFB581B01E460A9F1346040047D0002B04
:10BBB00045D0504D012028700020E8702022194601
:10BBC0004D48FFF7B9FA00206F61C0432E6128810C
:10BBD000284607211830FFF7C8FA47483821203097
:10BBE000FFF7C3FA4448217820300170A1788170B2
:10BBF000E178C170617841703F4A65692369556396
:10BC0000114613632031E368A268CB608A603A4929
:10BC1000E369A269CB638A63616A00291AD001468D
:10BC200038310246443241628A60636A1B880B8065
:10BC3000616A436A898899800021436A07E00E207F
:10BC400005B0F0BD656AAD686D5C5554491C9D88B2
:10BC50008D42F7D8A16A00291CD0274A903211469C
:10BC60000C398A608162A36A9B888B80A16A836A8F
:10BC7000098819800021836A04E0A56AAD686D5CBB
:10BC80005554491C9D888D42F7D82C210A5D1A49CC
:10BC900040310A73216A002909D016490A3101622C
:10BCA000226A52884A80216A026A09881180616882
:10BCB000002900D04160104A0E490020AF322031E7
:10BCC000C3001B1A85009B180C68401C6351082890
:10BCD000F6DB094A0020E732030185009B188C68D7
:10BCE000401C63510828F7DB034802992030FFF716
:10BCF00023FFA5E7102000206822002010B501884E
:10BD0000134C102915D0112919D01B2910D1007AF4
:10BD100000280DD1E0780521401CFFF7F7F908460F
:10BD200000F04EF8002803D06169002900D0884750
:10BD300010BD817D0129FBD18088208110BD0021AB
:10BD40006171808821898842F8D10120E8E70000EC
:10BD50001020002010B5022801D003280ED1084C75
:10BD6000607800280AD000206070E07800F028F8A1
:10BD7000002803D06169002900D0884710BD000069
:10BD80001020002010B574DF0B4C012060710B49AE
:10BD90000620C87000210948FFF7CEFE002809D10F
:10BDA000E07800F00DF8002803D06169002900D088
:10BDB0008847002010BD00001020002088220020AD
:10BDC000F1B53F4C88B0207800280AD00898E07080
:10BDD00006A801F09BFA06980125002804D065709A
:10BDE0006AE0082009B0F0BD354800270721183067
:10BDF000FFF7BBF9334E7078002802D0E0780128B5
:10BE000007D0B07800280CD0E078012801D00228B3
:10BE100007D12169002903D025710820884700E057
:10BE200027710898FFF770FCE0702169002909D09C
:10BE3000032801D0042805D13078002802D0607989
:10BE4000002811D0A77118216846FFF78EF96846BF
:10BE500007700772E1781A480B001830FFF74EFBA5
:10BE6000052E080F191D2000A57107208847EAE755
:10BE7000A5700190684605704782078213E0022191
:10BE8000A170019068460570B189418231890182B3
:10BE900009E0684604F034FE02E0684604F05CFE07
:10BEA000E078002803D0684673DF00289AD1216922
:10BEB000002901D0A0788847002093E7A770F6E713
:10BEC000102000206822002070B5054601461C2283
:10BED0000E48FFF731F90E4C00262670296800291C
:10BEE00006D00822201DFFF727F9201D7ADF02E087
:10BEF0000748001D7BDF002807D1401E6080667068
:10BF0000044A00210448FFF7EBFC70BD30240020F8
:10BF1000402000204514020044190200F8B5214CCD
:10BF20000146028800261E48E589102A13D01E4FBC
:10BF3000112A1FD0122A2BD0502A1AD1881DC98845
:10BF4000A94216D14189022913D10C3000F06FF9B2
:10BF500000280CD112E08A8804464280104808224A
:10BF60000C301831FFF7E8F86670002D01D100F0B1
:10BF70005BFDF8BD0021C943418046703868FFF77A
:10BF800043FD0028F5D0A1690029F2D08847F8BD0B
:10BF9000034808220C300831FFF7CEF8E7E700002D
:10BFA00040200020302400204419020010B503492D
:10BFB0000A7D091D04F0A9FB10BD00004C240020DF
:10BFC000034B10B50246D97D181D04F08BFB10BD44
:10BFD0004C240020034B10B50246197E181D04F0B6
:10BFE00081FB10BD4C240020F0B5044602883A487D
:10BFF0008DB0014615310191102A09D0112A50D077
:10C000001A2A4AD1217A090901294ED901234DE082
:10C01000027D417D05468A43011D07A804F075FB9A
:10C02000142207A902A8FFF787F800262A483746F6
:10C03000143008900AE0710002A8081883881D22B5
:10C040000097281D089904F00DFB761C0298B04259
:10C05000F1D8287DA688C043C0B204F027FB1F4951
:10C06000884217D040004019868001233246281D9F
:10C07000019904F06DFB01233246281D089904F054
:10C0800067FBA07D02280AD000231349A28816313D
:10C09000281D1DE00420FFF717FC0DB0F0BD0123A3
:10C0A000F3E70023A288001D12E000230A49054699
:10C0B000A2881731001D04F04BFB207A00090228EA
:10C0C00001D9012300E000230349A2881831281D6B
:10C0D00004F03EFBE1E700004C240020FFFF0000DD
:10C0E00070B50B4E05460024317D2A46301D04F004
:10C0F000F9FA002809D0B17D2A46301D04F0F2FA81
:10C10000002801D0022400E00124204670BD000078
:10C110004C24002010B50024204605F0C5F9002865
:10C1200005D0641CE4B2182CF6D3182010BD0448C6
:10C1300001220168A24011430160204610BD0000A9
:10C140004C24002010B5044605F0AEF9002802D0BA
:10C1500001480019407E10BD4C24002070B50546F2
:10C160000C46084605F0A0F9002806D003482A46E8
:10C170000119497E001D04F0B5FA70BD4C24002061
:10C1800070B5064615460C46084605F08DF90028A0
:10C1900007D004482B4601193246001D193104F01E
:10C1A000D7FA70BD4C2400207CB5054608880C46A3
:10C1B0000930904201D90C207CBD684671DF00280F
:10C1C000FAD121880820685420881B21401C80B2A5
:10C1D00020802954208800A9401C80B2208040196A
:10C1E00006220131FEF7A8FF20886946801D80B233
:10C1F00020800978002900D0012129542088401C82
:10C20000208000207CBD10B50446FFF7EDFE2046DF
:10C2100003F052FD2046FFF781FE204600F070F843
:10C22000204602F0BBFC2046FFF768FD10BD4178B8
:10C23000027808021043C007C00F704700B51748C6
:10C2400087B00068059000234822154905A804F02E
:10C2500033FF002801D0FFF737FB6A460121002099
:10C2600004F012FF002801D0FFF72EFB684604F00F
:10C2700001FF002801D0FFF727FB0A4804F0F0FE79
:10C28000002801D0FFF720FB074804F047FF0028F3
:10C2900001D0FFF719FB07B000BD00000419020030
:10C2A000B421002007C20100311102007CB5134EF9
:10C2B00000250C463060002918D06946002000F0A7
:10C2C000B5F8002819D101A9012000F0AFF8002825
:10C2D00013D1684601790020002901D0022004E032
:10C2E00069460978002900D00B202070706800286A
:10C2F00002D1FFF73DFA054628467CBD0820002004
:10C3000010B51C4C0188606810290DD011290AD184
:10C31000401E606007D1FFF72BFA002803D0216888
:10C32000002900D0884710BD00281ED1002101221D
:10C33000084600F0B3F8002801D0072811D10722E1
:10C340000221012000F0AAF8002801D0072808D116
:10C3500004220221002000F0A1F8002805D00728BF
:10C3600003D02168002900D088476068401C6060C5
:10C3700010BD00000820002010B5032000F00CFACA
:10C38000002801D0062800D1002010BDF8B50746CE
:10C390000024234802E0641C042C1AD2A200825814
:10C3A000BA42F8D1042C14D21D481E4E0C38002974
:10C3B00029D001290ED002290BD160002018801944
:10C3C0004578002D05D018480169002901D028467C
:10C3D0008847F8BD61006118755C8E197178002975
:10C3E0000CD011490A224968806851430E4A521CF8
:10C3F000FFF7C6FA002801D10B4847700A48B17808
:10C4000014300155DDE78068FFF7FEFA0648610049
:10C41000611814308919005D8D78A842D1D0F8BD1B
:10C42000141902003C220020F01F002004280CD226
:10C43000074A1269074B80001B5C0120984090431B
:10C4400000D001200870002070470020FAE70000AB
:10C450000005005014190200014610B50D480429CA
:10C46000008806D007290CD00A2901D104F09EFBD0
:10C4700010BD132176DF09E00028F9D0FFF724FA78
:10C4800010BD05498842FBD1FFF77CFC0828F3D199
:10C4900010BD0000E81F0020FFFF000070B5002362
:10C4A000042811D2440004190D4D012A02D101299A
:10C4B0000DD0002246008019094E801900290CD0A9
:10C4C000012906D0022906D00723184670BD0D3079
:10C4D000C2B22A55F9E74270F7E78270F5E700002B
:10C4E0003C22002010B5054A0146127A0020D207EE
:10C4F00002D0084600F054F810BD0000F01F0020E4
:10C5000070B50E46204905464E608D6000200A61D8
:10C51000A9071ED50024012211462046FFF7BEFFC1
:10C52000641C042C02D20028F5D012E0002810D19F
:10C53000720804211548FFF77FF9002809D1FFF799
:10C5400069F9002805D11148114A00211438FFF774
:10C55000C7F9E90706D00F220E4952058A60002369
:10C56000CB608A6100280DD108480B4A00211C3895
:10C57000FFF7B6F9002805D10448084A0121183808
:10C58000FFF7AEF970BD0000F01F00202419020073
:10C59000D5C701000005005089DF0100FDB701008B
:10C5A000FEB57A4D0722EB6892059A4302936B68B9
:10C5B00000939C0006461B190020012101934905A8
:10C5C0000746734C3300FEF799FF180D15153747D2
:10C5D00055677C887F8891DE9E9E9E9E9EC8CED1A8
:10C5E000D8DEDE140F21029A49059143A160E7606D
:10C5F0002F70FEBDA260E76060680F2252055040B8
:10C60000800209D5A160E760022E02D1E120C000BE
:10C610000AE07D20400107E0E160A760022E01D121
:10C62000C82001E0FF2091302E706421FEF76EFDDE
:10C630000099414300223FE0A260E76060680F225A
:10C6400052055040800204D5A160E76019204001E6
:10C65000EAE7E160A760E3E7A260E76060680F22B5
:10C6600052055040800202D5A160E760D1E7E16049
:10C67000A760D7E7A260E76060680F2252055040CC
:10C68000800202D5A160E76001E0E160A7602E7042
:10C690000098410000220FE0A260E76060680F226E
:10C6A00052055040800202D5A160E76001E0E160E0
:10C6B000A7602E700099002236480068FFF760F9E5
:10C6C000FEBDA260E7601BE06168012080050246B4
:10C6D0008A43A2600140E16010E0606801218905A1
:10C6E0000A468243A2600840E060E3E760680121F7
:10C6F00089050A468243A2600840E0600199C9E7C3
:10C70000E160A7602DE023484068FFF77DF9112123
:10C710008A1B01D0002807D00F22E968520511407A
:10C72000A160E760EF60FEBD0121C905E960012A53
:10C730000CD91046C82148436421FEF7E7FC69681C
:10C740000022414313484068FFF71AF90F22E968B5
:10C7500052051140E160A760FEBD0F214905A160AF
:10C76000E7602E70FEBD07229205AAE70D2149055C
:10C77000A160E76001218905C2E70321C905A16025
:10C78000E7608910BCE70F214905B9E7F01F0020D9
:10C790000005005008190200F0B500210B4C0C4DAB
:10C7A00003273F048A00A2589200561932680123D9
:10C7B0008B40034000D00323BA431B041343336070
:10C7C000491C0429EED30020F0BD0000141902001A
:10C7D0000007005010B500780221FFF7D7FD10BD0B
:10C7E0000022D243830004490428CA5002D3081807
:10C7F0002030027770470000C0280020F0B50025E7
:10C80000ED43002A02D00023042601E00423082679
:10C810000B4C04E09F00E7597F1C04D05B1CB34223
:10C82000F8D32846F0BD26185DB2203635709E003C
:10C83000A151002AF5D1E11820310877F1E7000075
:10C84000C02800200249091820200856704700001F
:10C85000C0280020002807D00449814204D8044998
:10C86000814201D901207047002070472C2100200F
:10C870003C210020044A0168914201D0083101E0C6
:10C880000149383901607047202A002070B50D4DEC
:10C8900004460A462846AC4208D1FF24013421460A
:10C8A000104603F0C7F9A0420AD070BDFF2CFCD897
:10C8B0002146104603F0B0F9002801D0204670BD93
:10C8C000284670BDFFFF000070B5084C050009D078
:10C8D00010342168002907D008682060496828467C
:10C8E0008847F6E70834F4E770BD0000AC28002064
:10C8F000F8B52348416800293ED00E6821494C68AC
:10C9000087688078E11B0D022D0AED1C002814D1E8
:10C9100001201D4A000450601B4A403A50601B49E8
:10C92000400008601A4908601A49012008602F2059
:10C9300001F07EFF124901208870B54200D23546D1
:10C94000E81900020F4B000A403318600D4A516885
:10C95000001B091B0902090A0002000AC91C8142C6
:10C9600009D9506818602F2001F062FF01200749A3
:10C97000400480390860F8BD03F0F2FDF8BD000006
:10C98000CC200020001501404013014080E200E06F
:10C9900000E100E000100140F8B50646108814469A
:10C9A0008446801D0D46984201D90C20F8BD32887E
:10C9B0000720062AFAD31927FF01184BBA4201D9DA
:10C9C0009A42F3D171880629F0D3B94201D999422C
:10C9D000ECD19A4203D0994201D08A42E6D805218F
:10C9E0006046295420881221401C80B2208029549E
:10C9F0002088401C80B220804119308804F01DFD41
:10CA00002188401880B220804119708804F015FDFB
:10CA10002188401820800020F8BD0000FFFF0000A2
:10CA200010B5FEF751FF10BDF8B5164801F068FAD1
:10CA3000144D00260C3D144C002807D061690029D4
:10CA40001CD001206A461070684616E0287800283D
:10CA500005D06169002911D0684606700DE068783C
:10CA600000280DD0A168094800220068FEF788FF61
:10CA7000002803D0A169002900D088472E70F8BD96
:10CA80006168F0E74C2000203024002044190200A7
:10CA9000F0B585B00C46002802D0012005B0F0BDED
:10CAA000207900270126002806D01F4D012820D01C
:10CAB00002282CD00F20F1E702970397E06801903D
:10CAC000694601A803F076FC00280ED00298818800
:10CAD000E18000882081029803F0E6FC694609881D
:10CAE0000A01124951188E7300E00A2002212171B7
:10CAF000D4E70F4B6A460021A01D03F019FC002863
:10CB000007D00B4908398F60CF600A28C6D1284664
:10CB1000C4E7019803F0C8FC054989880A01034964
:10CB200051188E73F1E700001D1D0000302A00200F
:10CB300000210020F8B500260124154D23E0696886
:10CB4000F0004718387821462A698140114218D0F0
:10CB50008A432A6101F090FF3A782146EB689140C0
:10CB600019400346934099420BD17978012901D0AD
:10CB7000012100E000217B684140002B01D01046DC
:10CB80009847761CF6B228788642D8D3F8BD0000C4
:10CB9000B820002010B50E4900230A784C78A24234
:10CBA00012D0521CD2B20A70022A00D10B700A783D
:10CBB000074B920018339A580260886810180002D8
:10CBC000000A8860012010BD0360002010BD000035
:10CBD000CC2000203EB5094D38CD0093029501943C
:10CBE0006B46588099809A71054900220978FFF7B1
:10CBF000C7FA684600F08EF83EBD0000C819020072
:10CC00009C20002010B5047800222300FEF776FC5B
:10CC1000070605070D1D262C06000A7010BD01220F
:10CC20000A7002898A81828814E002220A700289CD
:10CC30008A818288CA81C2688A60007C062802D004
:10CC40000020087410BD0120FBE703220A70C2888F
:10CC50008A810289CA81C068886010BD04230B7074
:10CC6000C0888881CA8110BD0520087010BD0000F1
:10CC700070B5064D06460024A0002958002901D0B1
:10CC800030468847641C082CF6D370BD502900201C
:10CC90000EB5002910D011290ED000220092029268
:10CCA0006A46508001910D2907D0042907D0092038
:10CCB0001070104600F03CF80EBD0B20F8E70A207B
:10CCC000F6E7000001490968084700005C200020E1
:10CCD00070B5054D06460024A00029583046884707
:10CCE000641C022CF8D370BD60190200F8B5074629
:10CCF0000024064E064D04E0A0003158384688470F
:10CD0000641CE8788442F7DBF8BD0000602800204E
:10CD10008C20002070B5054D06460024A00029583F
:10CD200030468847641C022CF8D370BD901902006D
:10CD30000149096808470000D41902007FB504467C
:10CD4000406800280BD00020039020780026414D39
:10CD50000300FEF7D3FB066D0606304E7B6D012007
:10CD6000F2E7A08900F0DCF9002804D1E08903F0A3
:10CD7000B3FB00285CD0A08900F0CCF901466846DE
:10CD80004180E08903F0A2FB0146684601712078EA
:10CD90000128606807D0002809D00420694608707F
:10CDA0006068039020E00028F8D00320F6E7012017
:10CDB000F4E708463AE0A08900F0B2F9002804D16F
:10CDC000E08903F089FB002832D0A08900F0A2F9A5
:10CDD00069464880E08903F079FB6946087160681C
:10CDE000002804D005200870A0680290E1E7022026
:10CDF000F9E7A08900F094F9002819D0E08900280B
:10CE000016D1A08900F086F969464880E08903F0D0
:10CE10005DFBFF2069460871606800280FD007207D
:10CE200008706E70AE7002F029FC684602F0E4FAF9
:10CE30006878002802D06E7002F020FC7FBD0621C9
:10CE400068460170408802F0A7FCEAE708206946BE
:10CE50000870AEE77820002000B5104987B0097847
:10CE6000890702D4022007B000BD0D49884201D1D4
:10CE70000420F8E7052269460A7001220A71C88079
:10CE800000221146684601F015FF002803D003F088
:10CE900033FA0020E7E70820E5E70000F82000204B
:10CEA000FFFF000000B50F4887B00078800702D46C
:10CEB000022007B000BD0620694608700022114616
:10CEC000684601F0F7FE002809D0074801780029DC
:10CED00001D00121017303F00FFA0020E9E70820D7
:10CEE000E7E70000F8200020502A002000B58DB0B0
:10CEF00014216846FEF739F91E480078810703D5EA
:10CF00006846FFF7B5FE32E0C00730D1012000F0DF
:10CF10002DF900F0A5F901F05FFF00280ED00628DA
:10CF20000FD001216A4611750300FEF7E7FA0C19CC
:10CF30001119111918191819131613190B200DB0FE
:10CF400000BD022000F012F9012000F0F5F8D7E74B
:10CF5000002000E00320107602E00220FBE71176BB
:10CF60000022114605A801F0A5FE03F0C5F9002036
:10CF7000E5E70000F820002038B5040014D0694629
:10CF800003F018FA002813D0684600880101094808
:10CF900009188889002809D0A27A002A06D0401EE4
:10CFA00088810020A07238BD052038BD062038BD1C
:10CFB0000A2038BD302A00201FB501A9684603F0B9
:10CFC000B7F904B010BD07B513460A4669460020FC
:10CFD00003F0AEF90EBD07B513460A4600216846B8
:10CFE00003F0A6F90EBD002805D0002903D0006883
:10CFF00008600020704705207047000038B50D46D6
:10D00000040017D0002D15D0694603F0D3F900288D
:10D0100012D0684600886168020108481218908999
:10D02000401C9081296060680C3068600120A0720B
:10D03000002038BD052038BD0A2038BD302A002028
:10D0400010B5002804D00323002204F029FB10BDF2
:10D05000052010BD10B50223002204F021FB10BDF5
:10D0600010B5002A03D0022304F01AFB10BD0520DE
:10D0700010BD000010B5064A5178082906D08B0073
:10D08000044C491CE0505170002010BD0C2010BD14
:10D09000F82000205029002038B504460A480D46E3
:10D0A0000078800701D4022038BD002C0AD06946E0
:10D0B000284604F001FC0028F6D169460988218041
:10D0C000658038BD052038BDF820002010B5044625
:10D0D0000E480078800701D4022010BD002C10D02B
:10D0E000218802290FD80A4A0801801842896088DD
:10D0F000121A032A07D404F0D5FB00202080608098
:10D1000010BD052010BD042010BD0000F820002037
:10D11000302A002003218903401A80B270470000A2
:10D1200003218903401A0349884201D8012070472E
:10D1300000207047FE3F000002490A7882430A70CF
:10D1400070470000F820002010B504460078182829
:10D1500002D1FEF7DFFF207010BD10B50446007845
:10D16000182802D1FEF7D6FF207010BD02490A78B8
:10D1700002430A7070470000F820002070B5064690
:10D1800000200546042906D0112902D0002903D029
:10D1900070BD012500E001200E4C002A02460FD090
:10D1A00061793046FEF7ECFF2A4621793046FEF7DA
:10D1B000E7FF002261783046FEF7E2FF002204E03C
:10D1C00061783046FEF7DCFF2A4621783046FEF7CC
:10D1D000D7FF70BDA0200020F8B506461C481F46AA
:10D1E000007815460C46C0070AD03046FFF732FBE0
:10D1F000002807D0002C07D0A00507D00620F8BDD6
:10D200000120F8BD0220F8BD0320F8BD3068A0421F
:10D2100004D8A80271680019884201D90520F8BD18
:10D22000002D10D0684602F0B9FF00280DD00098FC
:10D230000221C0C00170A101090C8180058103F0A9
:10D2400069F80020F8BD0420F8BD0720F8BD0000F3
:10D250001021002010B5084602F0BCFF10BD0000F0
:10D26000F0B52648264C001B03092648194640699C
:10D27000421C03D10120000740698002224A127833
:10D280009646D2070CD00020F0BD1D4C15012C197C
:10D290002568002D03D06468002C00D0491E521C64
:10D2A0009A42F2D3002420E0E2B2002594462A46B6
:10D2B0000FE0134E1701BE193768002F02D07768B0
:10D2C000002F05D1767BAE4202D93546D6B2B446A0
:10D2D000521C9A42EDD362461501094AAA185060C1
:10D2E000157BAD02401B641C10608C42DCD30648E9
:10D2F0007146012211430170C5E700003C21002066
:10D300002C2100200010001010210020002804D043
:10D310000349496E016000207047032070470000F8
:10D32000602A0020F8B507461E481E4600781546BC
:10D330000C46C0070ED03846FFF78CFA00280BD0F9
:10D34000002D0BD0002C09D028462043800707D0A1
:10D350000620F8BD0120F8BD0220F8BD0320F8BD6D
:10D360003868A04204D8B10078680919884201D20F
:10D370000520F8BD002E11D0684602F00FFF0028EE
:10D380000ED0009806990760416001210172C560C6
:10D390000461868202F0BEFF0020F8BD0420F8BDC3
:10D3A0000720F8BD1021002070B5174B0446186EF9
:10D3B000182148431549C0180A78950715D5022C3D
:10D3C00002D0032C1CD102E001F04AFC18E04A789C
:10D3D000521CD2B24A70032A12D900224A70082184
:10D3E00003F088FA02F0C4FE0AE0500708D5FB20DB
:10D3F00002400A70586E002802D0022002430A70D0
:10D4000002F044FF70BD0000602A002010210020BF
:10D4100070B5002801D0012070BD164C0025207B7E
:10D42000002801D0257301E000F09CF8207803006B
:10D43000FEF764F8081E05080B0E1E111A1E00F0F8
:10D440001BF870BD00F07EF870BD00F061F870BD93
:10D4500000F038F870BD6088064900012039401896
:10D46000406801F099FC70BD656001F0A3FC70BDDF
:10D470000F2070BD502A002070B5104900208A1C72
:10D480000D460346203D0C18A67A002E08D0A37244
:10D4900004016419A689002E02D1A47B012C08D0B6
:10D4A000401C80B20228EED30B704B8004484B60C6
:10D4B00070BD108000F046F870BD0000502A0020BA
:10D4C0001D1D000010B50F4C60880101204620385A
:10D4D0000818818900290BD0052020700A480221F4
:10D4E00081800168002301220848FFF775FE10BD06
:10D4F0004168002301220548FFF76EFE04212170D8
:10D5000010BD0000502A0020082100202C210020FE
:10D5100038B50A4908480B68898842688900591853
:10D520005388032404700020DB1C00909BB2044845
:10D53000FFF7F8FE38BD0000502A00200821002027
:10D540002C21002010B506494888091D02F082FFF1
:10D55000002802D0FFF7DCFF10BDFFF7B3FF10BDBE
:10D56000502A0020F0B51D481D49077802460125C4
:10D5700002268C88203A3B00FDF7C0FF08051717EC
:10D580001A212C2C16170189491C01810021418088
:10D5900001730B01D35C002B08D000234418491CF5
:10D5A00089B2A3720229F4D30570F0BD0123F5E717
:10D5B00042685288D21CA2188A800670F0BD458845
:10D5C0000B682D01AA1855680D60536014818E8078
:10D5D000062100E007210170F0BD0000502A002064
:10D5E00008210020F0B504460088384D8DB0502841
:10D5F0001DD0522802D0542826D103E0A08800F084
:10D6000009FF21E0062069460870A08800F0A6FB0B
:10D6100069464880A2888A8000F054F9A0880022D8
:10D62000E978FEF7ADFD6846FFF74CFB0CE0207B88
:10D63000012809D1A07A012806D1208924498842ED
:10D6400002D1A08800F022FFA878FEF77BFD002819
:10D6500019D008A8FEF7AAFC142208A903A8FDF710
:10D660006BFD002403AE0BE060008719B888A97831
:10D67000FEF774FD002802D0B88800F0CBFE641CD1
:10D680000398A042F0D86878FEF75CFD002819D016
:10D6900008A8FEF78BFC142208A903A8FDF74CFD8F
:10D6A000002403AE0BE060008719B8886978FEF7A4
:10D6B00055FD002802D0B88800F0E8FE641C0398ED
:10D6C000A042F0D803F03AF90DB0F0BD542000208C
:10D6D000022900003EB5044640886946488020780B
:10D6E000002814D001281DD002280FD1207900284D
:10D6F0000CD0608800F066FA0E49884206D00E49C8
:10D700000122C978FEF73CFD03F018F93EBD002068
:10D7100008700846FFF7D6FA608800F053FA00F068
:10D7200079FE3EBD012168460170A1888180FFF726
:10D73000C9FA3EBDFFFF00005420002010B504468A
:10D74000007801280DD1608800F064FE608800F048
:10D750007DF9002805D0034960880122C978FEF7C9
:10D760000FFD10BD5420002010B5104C002020707B
:10D77000FEF7D0FC6070FEF7CDFCA070FEF7CAFC8F
:10D78000E070FEF7C7FC2071617818290BD0A178F2
:10D79000182908D0E178182905D0182803D00120CD
:10D7A0002070002010BD032010BD00005420002078
:10D7B000F0B585B000F09EF86846FEF7F7FB002450
:10D7C0006D460C4F0EE060004619B08800F0C6FAB6
:10D7D000B84205D10849B0880122C978FEF7D0FCCB
:10D7E000641CA4B20098A042EDD803F0A7F805B0DD
:10D7F000F0BD0000FFFF00005420002010B50178AC
:10D80000072902D1408800F041FE10BD10B5044642
:10D810000A4841782046FEF7A1FC00280CD00848B1
:10D8200000210C224A4312185288A24201D1C8B2E8
:10D8300010BD491C0829F4D3FF2010BD6C20002026
:10D840008024002070B5094D094E00240C2060434F
:10D85000401940887178FEF781FC002804D0641CD0
:10D86000082CF3D3FF2070BDE0B270BD80240020EF
:10D870006C200020F8B50746104E0125BD403068E9
:10D88000FEF7C2F800280DD10D4C2069284207D1BF
:10D89000384601F0F1F80028E06804D0284303E09E
:10D8A000A8432061F8BDA843E06020690022284316
:10D8B0002061A1683068FEF763F8F8BDD81902004E
:10D8C000B82000201CB5054A9168D26801920091E9
:10D8D0000022694601F058FC1CBD00004C190200F2
:10D8E00003480021C9438180012101700020704755
:10D8F0006020002010B5044801F072FB03498880C5
:10D9000003F048F810BD0000FFFF00006020002079
:10D91000F1B582B0029800F021FA002416490325DF
:10D9200001272646884209D06A46082101F002FCF8
:10D93000002803D1019886880568841D2B4632464D
:10D9400021460298A9DF042804D0082804D00B2817
:10D9500007D002E0112000E00020002F00D10B20B2
:10D96000FEBD0027A80701D50125E7E73443F6D01F
:10D97000002426460325E1E7FFFF0000F1B582B051
:10D98000029800F0EBF907461B48874201D11B487B
:10D99000FEBD01252A466D1C0026ADB26B4608214E
:10D9A000384601F0F7FB040002D0072C21D021E01B
:10D9B000019903230B600A1D891D0298AADF040048
:10D9C00004D00C2C08D0052C08D008E008213846DB
:10D9D00001F07AFC04460DE0012600E00024082155
:10D9E000384601F05BFC002800D00324002ED1D182
:10D9F00000E00C242046FEBDFFFF000002300000C6
:10DA00001FB504460078012813D12079012810D1D0
:10DA1000608802AA012101F08DFB002809D10221B2
:10DA200068460170618841800121017105490968DA
:10DA300088470448044908388088884201D002F0A9
:10DA4000A9FF1FBD68200020FFFF00001CB500F0EB
:10DA500085F96A46012101F06DFB002801D0002004
:10DA60001CBD019800781CBDF8B5074E074C084D49
:10DA70000746324661883846A7DFA84203D160884E
:10DA8000401C6080F5E7F8BDFFFF0000602000202B
:10DA9000033000008188054A914204D000880028A4
:10DAA00001D001207047002070470000FFFF0000F8
:10DAB0003EB5044600780D46022815D10322611CAC
:10DAC0006846FDF739FB0322211D02A8FDF734FB50
:10DAD00001AA02A92846FDF769FE032201A96846AA
:10DAE000FDF74EFB002801D000203EBD01203EBDC9
:10DAF00010B50C46FFF78AFEFF280AD00C214843D8
:10DB00000549072241182046091DFDF715FB002095
:10DB100010BD052010BD00008024002070B50188D4
:10DB200090B0102949D1011D2C2202A8FDF704FB59
:10DB30006846234E007B344602AD03282AD001F00C
:10DB4000CBFC6846007B00280ED001280CD00228B0
:10DB500020D118E00E99281D1131FDF7F9FC00289D
:10DB600002D06846048815E00DAA6946072001F036
:10DB700089FC0028EED10DE00E99281D491CFFF705
:10DB800097FF0028EDD10DAA6946072001F07AFC25
:10DB90000028F1D168460089291D00F0F9FDB44242
:10DBA0000BD068460089214600F086F86846018956
:10DBB000418001210170FFF78BF810B070BD0000AB
:10DBC000FFFF0000084A00210C234B43D35A834235
:10DBD00004D10C204143881840887047491C08290B
:10DBE000F2D302487047000080240020FFFF0000AD
:10DBF00010B50E4C182060700D4A0E4900200C2301
:10DC000043435B18401C5A800828F8D3FEF782FA79
:10DC10006070182804D00548C01C71DF002801D0AE
:10DC2000032010BD01202070002010BD6C200020BA
:10DC3000FFFF00008024002070B504460D46401C04
:10DC400000F090F9002810D01022691C601CFDF72C
:10DC500097FA00280AD000262946204611311130B3
:10DC6000FDF776FC01463046084370BD0126F3E718
:10DC70000188002903D142189278002A01D001209E
:10DC80007047491C0829F6D30020704710B50C4690
:10DC90000346FFF7EDFF00280BD018882188884243
:10DCA00006D10822A11C981CFDF76AFA002801D0B1
:10DCB000002010BD012010BD10B501F0C9FD10BD40
:10DCC00010B50446007888B0002826D120790728AE
:10DCD00023D1608801AA072101F02CFA00281CD169
:10DCE00001F0FAFB1BE0694660880988884216D07B
:10DCF00004990298FFF7A0FF002810D06088FFF772
:10DD000061FF01466846C182002101756188018377
:10DD10000188418305A8FEF7DBFF08B010BD03AA08
:10DD20006946072001F0AEFB0028DCD1F5E70000D2
:10DD300070B50446FFF746FF0546204601F0FFF99F
:10DD4000054904468D4204D0002C02D1284601F03A
:10DD50007FFD204670BD0000FFFF000010B5FFF7FB
:10DD600055FDFF2804D00C2148430249085A10BD34
:10DD7000014810BD80240020FFFF00003EB504468E
:10DD800001F0AAFB10E0019920464631FFF77EFF23
:10DD9000002806D1019920462A31FFF777FF002895
:10DDA00002D0684600893EBD6A4602A9072001F0FC
:10DDB00069FB0028E7D101483EBD0000FFFF0000DD
:10DDC000F8B50F46002804D00120FFF7B5F901206F
:10DDD000F8BD397900290AD00026254D01290BD03C
:10DDE000244C022920681FD003293BD125E000F0F4
:10DDF000E1FF0121397133E000200101695C022952
:10DE00000BD0401C80B20228F7D30220FFF7AEF9F6
:10DE10000120FFF791F91848F8BD04016019406826
:10DE200000F0BAFF2E551BE00146002301221348E3
:10DE3000FFF7D2F90221A18011E000F0ADFF0C49FB
:10DE40002368203149880A01094951184D68256025
:10DE50004B60A3880B810221A18005498E543E713D
:10DE60000028D9D00120FFF767F90E20F8BD000087
:10DE7000302A0020082100201D1D00002C21002038
:10DE8000F8B51E4C2078002836D0E068002600281F
:10DE90000CD00025607800282ED1684652DF052876
:10DEA00006D0002806D0FDF70FFD0BE00125F1E7B5
:10DEB000012607E0009800F00BFD2169002901D040
:10DEC00000988847002D13D16078002814D160880D
:10DED00069460880A06861DF052804D0002804D0C6
:10DEE000FDF7F2FC04E0012502E0E168A068884744
:10DEF000002ECFD0002DE5D0F8BD00001421002069
:10DF0000418805480288914204D34088814201D863
:10DF10000120704700207047442000201048018CE9
:10DF2000C9B2012917D1818C090714D1018D0906C5
:10DF30000A0F03D1828D1206120F0ED0090F01298C
:10DF400003D1828D1206120F07D0032903D1808DD1
:10DF50000006000F01D0002070470120704700002C
:10DF6000C00F00F00021425C002A01D00120704760
:10DF7000491C1029F7D300207047800701D00020EA
:10DF8000704701207047000010B50448017AC907A6
:10DF900002D00078FEF704FB10BD0000F01F002047
:10DFA000FFB5244D81B0287A1F460E46084304D0A1
:10DFB000039A002E04D0002104E0052005B0F0BD36
:10DFC0001C491031019802F04DFF04460146002221
:10DFD0000198FFF7D3F8002F03D021460198FEF7F0
:10DFE00057FE0D2C0DD006DC002C0AD0042C16D0C8
:10DFF000082C05D105E0112C05D00F48C44200D0F3
:10E0000003242046DAE73246E9780198FEF7B8F8AB
:10E01000A978039A0198FEF7B3F80024F1E7324695
:10E02000E9780198FEF7ACF8A978039A0198FEF711
:10E03000A7F8E6E7A0200020FECFFFFFFEB51746B9
:10E040000C00064604D02078C00704D0012003E06D
:10E0500000217EDFFEBD0220694608713046FFF7D1
:10E060007DFE17490546884208D001A800902B463E
:10E070003A462146304600F025F806E02078214651
:10E08000C007304603D000F081F804460BE07EDF85
:10E09000044600200090002C08D0002201232946CD
:10E0A000304602F0F3FB002C02D006E00122F5E737
:10E0B00068460179304602F00FFC2046FEBD0000A4
:10E0C000FFFF0000FFB585B000252E4601AA0721FD
:10E0D0000E9F089801F02EF8040008D1029D4420FC
:10E0E000405D1835C607F60F01D0029D34350798FC
:10E0F000204312D1002D10D0002E05D12846123019
:10E10000FFF7B6FD002808D029462A4612310598A7
:10E1100085DF04460020387023E0002C01D0052C58
:10E120001FD106980078C0070DD003AB012207214C
:10E13000089801F02FF804000AD10721089801F08F
:10E1400027F9040004D1069905987EDF040008D061
:10E150000721089801F0A2F8002802D0052800D075
:10E160000324002000903878002801D0012300E02B
:10E170000023002C07D000220899059802F086FBA6
:10E18000204609B0F0BD0122F6E70000FEB50F46BB
:10E19000064600F0C3FF05461848854220D001AB73
:10E1A00001220721284600F0F5FF04000AD10721CB
:10E1B000284601F0EDF8040004D1394630467EDFF0
:10E1C000040008D00721284601F068F8002802D092
:10E1D000052800D0032401200090002C0BD002E081
:10E1E000032400200090002201232946304602F03B
:10E1F0004DFB2046FEBD0122F6E70000FFFF0000B8
:10E20000F7B5114D0F46164629780098FDF7A6FF81
:10E21000002812D00098FFF7A1FD04460B48844265
:10E220000BD069780098FDF799FF002806D0334697
:10E230003A462146009800F047FEFEBD3246394678
:10E240000098FEF7C7FCFEBD9C200020FFFF0000E9
:10E25000F1B586B00698FDF775FF002821D0684615
:10E26000FDF7A4FE00246E4618E060008519A8881A
:10E270000699FDF773FF00280FD00B4FA888B978D7
:10E28000FDF76CFF0590A888F978FDF767FF014658
:10E29000A8880123059AFFF783FE641C0098A0421A
:10E2A000E3D807B0F0BD0000A0200020F0B5284C56
:10E2B0002146103948688B68227886469C46CF787C
:10E2C000667836E0182353436168521CC918A37856
:10E2D000D2B2934200D100220B78022B02D0032B42
:10E2E00027D123E003464D68194603E0A94204D034
:10E2F0000B46C96900291CD0F8E7002919D08B42C8
:10E3000008D1C069002805D1124F0125BD60002544
:10E31000AC4601270D68C969D961002909D00B688D
:10E320005B190B6005E00174C06900E00021002862
:10E33000F9D19642C6D10649624610398A604860D2
:10E34000CF70704501D00120F0BD0020F0BD00006D
:10E35000DC20002000100140F8B52C4E0446706807
:10E360000025009041E0002C02D02046E46920E026
:10E37000264818231030017842684B43491CC9B223
:10E38000D21801708378994200D1057011785068D5
:10E3900001292CD1017C002929D191684160D168E3
:10E3A00081601169C16051698161F178002900D0F3
:10E3B00045604368B268164F991A0902090AB942C2
:10E3C00002D28268891806E0D11A09028268090A15
:10E3D0008A4202D9511A016000E0056045600121BE
:10E3E00085600174C56102F0F5FE002CBBD10748C1
:10E3F0001030017840788142BAD17168009881422A
:10E4000001D00120F8BD0020F8BD0000CC20002084
:10E41000FFFF7F00FEB504461948002684422DD038
:10E420002046FFF775FA050012D00B2D14D0112DE0
:10E4300010D01448C5421BD00921684601702046FF
:10E44000FFF78CFC014668464180848002950DE010
:10E45000022102E001260BE00321684601702046FC
:10E46000FFF77CFC0146684641808480FEF72AFC69
:10E470000548324681782046FDF782FEFEBD000049
:10E48000FFFF0000FECFFFFF54200020FEB5044632
:10E490000026FFF773FA05460C281AD004DC002D7D
:10E4A00013D0042D05D127E0112D10D01348C542FB
:10E4B0001BD00921684601702046FFF74FFC01463A
:10E4C00068464180848002950DE0012102E001262A
:10E4D0000BE007216846017084802046FFF73EFC70
:10E4E000014668464180FEF7EDFB0548324641781B
:10E4F0002046FDF745FEFEBD0821EBE7FECFFFFFFE
:10E5000054200020F8B5054600780C46002620422D
:10E510000FD10020694608706846FDF789FA28780F
:10E52000204202D120432870012668460078FDF77A
:10E530009DFA3046F8BD0000002398B0474A0521F7
:10E540001846FDF7E3F9002801D0FDF7BDF9444A6C
:10E5500044490320FDF7D4FF002801D0FDF7B4F9AA
:10E5600069460020FDF7A2FE002801D0FDF7ACF9B6
:10E5700068460078022869D0002168460171FDF7DD
:10E580005DFE6846007901F077F9012001461031FF
:10E59000684601730F2234A103A87CDF002801D054
:10E5A000FDF792F9002400945021684601940180FF
:10E5B000A0214180FF2184809131C1807ADF002831
:10E5C00001D0FDF781F9382101A8FCF7CEFD022129
:10E5D00068460171012585710621C1718582264831
:10E5E000069020210FA8FCF7C0FD08A8C577FF20E2
:10E5F0002D301390B42000941490204B0FAA0021CA
:10E6000001A8FDF7CDFA002801D0FDF75DF91C2126
:10E610006846FCF7AAFD0520C00301900F20000406
:10E6200002900094032168460173C4810474144865
:10E630000590144806906846FDF746FC002801D076
:10E64000FDF742F90320FDF7BBFB02E0012194E74F
:10E6500048DF0028FCD0FDF737F9F9E73C2100201E
:10E6600059C40100CD0C00004E6F726469635F54A1
:10E67000656D706C61746500EA1F00207BEB010022
:10E6800041EC010021CA010070B5144682880E4693
:10E6900005462088111D4118921C994201D8FE2A76
:10E6A00001D90C2070BD521C32542088FF21401C1F
:10E6B00080B2208031542088401C80B22080811993
:10E6C000288802F0BAFE2188401880B22080AA88EB
:10E6D000002A09D0A968002908D08019FCF72CFD70
:10E6E0002088A98840182080002070BD072070BDB8
:10E6F000F8B50F46017814460546012902D168781D
:10E70000002806D02088821C9A422DD8012902D0E8
:10E7100006E00720F8BD69784118891C994223D882
:10E72000181A801E86B2684606802188B81C081810
:10E7300069467DDF0028EDD12878022805D1694699
:10E740000988B14201D809210AE00821012805D130
:10E750006878B04202D86A46108001E068460680B8
:10E7600068460088FE2801D90C20F8BD2288401C8C
:10E77000B8542088401C80B22080395420886946D3
:10E78000401C20800988401820800020F8BD00002F
:10E79000F8B5FF240F46054600291FD0104EB5429C
:10E7A0001CD01048012241782846FDF7E9FC284694
:10E7B000FFF72CF80446FF2804D1FFF743F804467E
:10E7C000FF280BD00C2148430749024640184580DA
:10E7D0008E5207223946001DFCF7AEFC2046F8BDDC
:10E7E000FFFF00006C2000208024002070B50B4D3E
:10E7F0000E46A84201D1002000E0401C84B209E08E
:10E800002146304601F030FA002801D0204670BD84
:10E81000641CA4B2FF2CF3D9284670BDFFFF000092
:10E820000121890740180068002800D001207047A6
:10E8300000280FD00849094A096800BF00BF00BF7F
:10E8400000BF00BF00BF00BF00BF914200D000BFAB
:10E85000401EF2D170470000282100200024F4005F
:10E8600010B50C4C2078002801D0852010BD002068
:10E87000A06060602061E060032100F02FF802F0EA
:10E8800047FC0121002801D103488161217000204B
:10E8900010BD0000AC2800200005004038B5002065
:10E8A000694608706846FDF7C3F8084C20780028D0
:10E8B00001D1FFF7D5FFE068401CE0600120A070A7
:10E8C00068460078FDF7D2F838BD0000AC2800207B
:10E8D00010B5002801D1FDF7F7FF10BD8207D30E58
:10E8E000FF229A408907090E10B5994000280BDADB
:10E8F00003071B0F083B9C080C4BA400E318DC69C2
:10E9000094430C43DC6107E08408094BA400E4183D
:10E91000236893430B432360C106C90E012088403E
:10E92000044908600449086010BD000000ED00E0E3
:10E9300000E400E080E200E000E100E0F3B581B037
:10E940000F46019800F0D4FF012400281D4E0198C5
:10E9500017D0FDF777FF80192030007F800903284A
:10E9600002D0012806D007E01748006901998C40C1
:10E97000204201D1022100E00321019800F0CEF8ED
:10E98000FEBD00F0C1FF0028FAD00198FDF75AFF44
:10E9900005468100C81D0D4AF93089180A6980B200
:10E9A00022430A6100F0CAF8002FE9D00198FDF770
:10E9B00049FF800030580028E2D00548AC40446050
:10E9C000FEBD0000C028002000050050006500408A
:10E9D00000630040FEB5044623480E46001920217E
:10E9E00041560027C8171346401C01D0082738E0BD
:10E9F000F27819462046FDF701FF0546401C2FD04E
:10EA0000B078002807D01948A10009180868022228
:10EA10009043086007E000217378204600910A4681
:10EA2000019100F069F8F078002810D01048AA0091
:10EA30001018317802690F4B1A400261E206D20CBD
:10EA40008907890B0A4301690A43026109E0064804
:10EA5000327840192030017F92011143017700E0A4
:10EA600004273846FEBD0000C028002000070050E3
:10EA700000650040FFE0FCFF03490969C140C80789
:10EA8000C00F00D0012070470005005070B5144D34
:10EA90002879002801D0082070BD11490020403994
:10EAA000421E0B182033401CC0B21A702028F8D325
:10EAB00000242046FDF794FE641CE4B2082CF8D331
:10EAC00003210620FFF70AFFFF207D3000F036F813
:10EAD00001200449C007486001202871002070BD52
:10EAE000002900200063004002480079002800D07F
:10EAF000012070470029002030B552000A439900D8
:10EB0000039C0A432102049D0A4329040A43024943
:10EB100080004018026030BD0007005082000648A7
:10EB20001018026803231B049A4302600268090458
:10EB30000A43026070470000000700500249401875
:10EB40000021016070470000006000400349401848
:10EB50000068012800D000207047000000600040DD
:10EB60004058002800D0012070470322120280186C
:10EB70004068084000D00120704710B5002809D037
:10EB8000032806D10220FDF7ADFC002801D0FCF7D8
:10EB90009BFE10BD02F00AF810BD000010B504463F
:10EBA000008888B03A2821D009DC022824D0102817
:10EBB00011D011280DD10020FDF794FC19E0512847
:10EBC0001ED0552805D1A088132176DF11E0FCF76F
:10EBD0007BFE08B010BD0720FDF784FC002801D0A3
:10EBE000FCF772FE1549A0880880F2E7A08813217F
:10EBF00076DF0028EBD1ECE7A088002167DFF8E79B
:10EC00001022A11D04A8FCF797FA6846017C002990
:10EC1000DFD0007E042803D0062801D00528D8D1F3
:10EC2000022908D0012069460870FF2083308880BF
:10EC3000A088A8DFDDE70220F5E70000E81F00203C
:10EC400010B50078002807D104483B21008876DF02
:10EC5000002801D0FCF738FE10BD0000E81F00209E
:10EC600010B5134A00215170017A012911D00229EF
:10EC70000ED18189491C8181C189491C89B2C18118
:10EC8000028A914204D1002101F034FE01F070FAB1
:10EC900010BD838AC28A991AFF2901DC89B201E07A
:10ECA000FF210131511889B2C1829942EBD010BDC8
:10ECB00010210020F7B51C4D0E4601466A6F00205A
:10ECC00082B0032A2DD82C4678340827636CBF1BEA
:10ECD000BB4226D8286F10188007800F1C22504393
:10ECE0004019FCF729FA686F401C6867002E17D09E
:10ECF000216C606C40184007800E001900230090C2
:10ED000009E00498D9000A1806CA009806C06846A7
:10ED1000FDF7B0FD5B1CB342F3D3606C80196064F7
:10ED2000012005B0F0BD0000702900200389CA1C35
:10ED30009A1802814289511AC91E41817047000008
:10ED4000F7B50D460121890247180446002608340C
:10ED50000220288012E02046FEF79CFE002817D0F3
:10ED60000C48A1684268914200D9416060888100E6
:10ED70000C1929880818C01C28800C34BC4202D207
:10ED80002068401CE7D10298002800D00670FEBD24
:10ED90000126EBE7F820002008B50021009101468C
:10EDA0000223024A0248FEF7BDFA08BDEC19020030
:10EDB0002C21002008B5002000900448022301689F
:10EDC000034A0448FEF7AEFA08BD000008210020FF
:10EDD000E41902002C210020F8B50025354F2C46FF
:10EDE0002E4600953448B102006840180168B942C7
:10EDF00005D1324A4168891830D001290CD0002150
:10EE00008A0082580346521C36D003202C49220126
:10EE10008854641CA4B21BE0009900290CD0284B34
:10EE2000022221015A54274A1368254A89180222CE
:10EE30004B60641C0A81A4B2224900220860091DAB
:10EE4000FFF77EFF1F488088022831D00820054345
:10EE5000761CB6B2032EC5D3E8B2F8BD184900231C
:10EE600022018B5451180A4648600E320831FFF7D0
:10EE700067FF02200543CCE7491CFF29C0D911498F
:10EE80000A68002A0CD00E4A02212301D1549A1894
:10EE900050600B48118120304480641CA4B204E00F
:10EEA00002200B6088800120009001200543CFE7FD
:10EEB0000420CCE7DEC0ADDE2C21002002FEE10EF6
:10EEC000302A00200821002070B5184D0E46044657
:10EED00023CD86B0029500900191684644808280DF
:10EEE0008371134D2046A978FDF738F9002803D027
:10EEF0003046FEF71DFF0FE00721304600F0CEF947
:10EF0000002809D0052807D1092269460A73CC8157
:10EF1000049003A8FDF7FEFE002229782046FDF7A5
:10EF20002FF96846FDF7F6FE06B070BDBC19020069
:10EF30009C200020F0B585B00746FDF703F90028B6
:10EF400014D06846FDF732F800246D460BE06000EF
:10EF50004619B0883946FDF701F9002802D0B0887B
:10EF600002F020F8641C0098A042F0D805B0F0BD73
:10EF700070B5054D06460024A00029583046884744
:10EF8000641C052CF8D370BD6C1902003EB50F4D02
:10EF9000002414206043401902F05CFB641C082C20
:10EFA000F7D30821502001910A490124C2000290A0
:10EFB000074B0094881800F0E2FC002801D00320E1
:10EFC0003EBD0348447000203EBD00008027002065
:10EFD00084200020F024002010B500F04BFA10BD72
:10EFE00010B500F04BFA10BDF0B5002585B00095C6
:10EFF0000195029503950446418868464180217930
:10F0000001712E462179608802F0FEFA22780421EF
:10F01000404F1300FCF772FA0A0606361C1C383EF5
:10F0200043484B4D00280DD0417CC9070AD002F05F
:10F0300023FB684606702078012800D0002069462E
:10F0400008722AE0012069460870A068029024E056
:10F0500000280ED08268A3689A420AD1427CD30766
:10F0600007D07B6852085B1C52000A437B604274E5
:10F070001FE0022069460870E06803900DE0FFF78A
:10F0800077FF16E0032006E068460170E068029012
:10F090006846F4E70520694608700846EFE7062051
:10F0A00069460870E068D1E701250720F3E7E068CA
:10F0B00002907868002824D0174E00241420274698
:10F0C0004743B819417C4A0703D48907C90F29422D
:10F0D0001CD08178F05B00F0F7F8002816D01421DE
:10F0E0004C43325B69464A80B9198A7869460A718D
:10F0F000042808D009216A46117002906846FFF77B
:10F1000037FF05B0F0BD08200870F7E7641C082C35
:10F11000D4D3F6E7842000208027002010B500F02B
:10F1200071FA10BD08B513889B0000936B4600F080
:10F13000DBF908BD10B5002300F0D6F910BD38B5D5
:10F140000546002420460AE08178284600F0A6F80B
:10F15000002802D0052800D003240098401C00900D
:10F160006946284602F062FA0028EDD1002C07D14A
:10F17000284600F04FFA002802D0072802D00324C6
:10F18000204638BD0724FBE710B51346002200F0E7
:10F19000E3F910BDFFB581B0049815460E4600286E
:10F1A00004D0072E05D0082E19D102E00E2005B09C
:10F1B000F0BD002D13D0082D11D8019800F035FABC
:10F1C00000280CD0002000903146019802F01CFA73
:10F1D000040026D0E068A84212D2002709E00720E8
:10F1E000E5E7207CC019C1B22A4800F000FC7F1C72
:10F1F000FFB2E068B842F4D8204602F02BFA10E0E3
:10F20000A84217D9EFB207E0207CC019C1B221484B
:10F2100000F0EDFB7F1CFFB2E068B842F4D8002C90
:10F2200008D1FF211C48019F02F0EEF9040005D02F
:10F230000780A670207CFF2802D00AE01120B6E7E4
:10F240002946144800F06CFB2074FF2813D00120DD
:10F250000090E560217C0F4800F0B2FB02000ED068
:10F26000ABB23146049800F071FA009800280FD034
:10F27000082E06D00CE0204602F0ECF9DEE7032071
:10F2800095E704980499008849688000801F888069
:10F2900000208CE770270020FFFF000070B50024DD
:10F2A00002F0B2F905000CD06868002804D000F024
:10F2B000D8F9040000D00324284602F0DDF92046E6
:10F2C00070BD052070BD00007CB50D4606460729BF
:10F2D00003D0082D01D007207CBD002000900190B4
:10F2E000684685702946304602F08EF9040004D045
:10F2F000607CC00703D000207CBD05207CBD217C44
:10F30000214800F05DFB020025D029466846E368ED
:10F3100000F0AFF9684602F065F923460833694604
:10F320003046626800F018F90246607C17494307CE
:10F3300004D5830702D54B685B1E4B60FB25FD237C
:10F34000002A0AD0112A0DD0042A14D0072A00D08E
:10F35000032210467CBD03207CBD012108432840C8
:10F3600018400EE04A68521C4A60042108431840C5
:10F3700060740022EDE74B6828405B1C4B60022163
:10F3800008436074E5E70000702700208420002017
:10F390007CB50D46072903D0082D01D007207CBD80
:10F3A000002602F031F9040003D06068002802D082
:10F3B0001BE005207CBD217C0E4800F001FB0246CD
:10F3C00000200090019068468570002A0FD02946E1
:10F3D000E36800F04EF9684602F004F9211D684622
:10F3E00000F027F90646092801D030467CBD0320ED
:10F3F0007CBD000070270020014909680847000013
:10F400006819020070B588B01748FDF733FE002870
:10F4100002D0032008B070BDFDF768FD002801D0C0
:10F420000420F7E700F0E8F90020104C0290E61FF6
:10F4300003900DE0694604A8FDF7E0FD0098808880
:10F44000801B85B204A8FDF797FD284600F088F9D7
:10F4500002AA04A92046FDF7B6FD0028EAD0044917
:10F46000012008700020D5E73DCD010007C0000055
:10F470007820002010B500F09DF910BD10B500F007
:10F48000A1F910BD70B505460320800386B014466F
:10F490000E46281880B20F4A6946FDF794FD0028F1
:10F4A00005D103A96846FDF7A9FD002802D0002078
:10F4B00006B070BDA57003984088208004986060F5
:10F4C00003988088FDF726FE30806846FDF754FDDE
:10F4D0000120EDE77C20002002480021416081608E
:10F4E0007047000078200020F0B587B01D46144614
:10F4F00007460E46FF280CD8084600F017F90028EA
:10F5000007D003AA3146384600F0F8F8002809D1A0
:10F5100002E0072007B0F0BD01A903A8FDF76EFDCA
:10F52000002801D00520F5E7A6700198002D40883D
:10F5300020800AD082002868904204D8029960682E
:10F54000FBF7FAFD03E00420E4E70298606003A8FB
:10F55000FDF712FD0020DDE77FB588B01D460C46A3
:10F560000646FF2831D8A07800F0E0F800282CD01B
:10F5700060680690208869468883304600F076F9F6
:10F5800069460880A07803218903401869464880AD
:10F5900006A8019001200881A17803AA304600F056
:10F5A000ADF8052813D00AA8FDF790FD694603A819
:10F5B000FDF746FD002818D0072820D008281CD0C9
:10F5C0000E281AD003200CB070BD0720FBE70A9864
:10F5D000002805D00AAA694603A8FDF741FDE9E71E
:10F5E000694603A8FDF736FDE4E7002D03D0294660
:10F5F00003A8FDF7F8FC0020E5E71120E3E704206D
:10F60000E1E7000010B5024800F0AAF810BD0000C4
:10F61000FFFF000010B5FF2801D9072010BD00F042
:10F62000A7F800F02BF8002010BD10B500F0F8F896
:10F6300010BD70B504460D46807800F077F80028BC
:10F640000BD021882846FDF727FD002804D0072885
:10F6500005D0092800D0032070BD072070BD04200C
:10F6600070BD01B56846FDF731FD002800D00320CC
:10F6700008BD10B59BB200F069F810BDF0B589B0B7
:10F6800000261C4F04963846059603E0204600F0FD
:10F6900083F8204600F08EF80446B84207D000F008
:10F6A000E5F804AA06A9FDF796FC0A28EED0124D4B
:10F6B000A878002819D1BC4217D003208003012765
:10F6C0002018AF7080B2FDF7C7FB08280FD00028C4
:10F6D0000BD0AE70092269460A704C80FF220A7175
:10F6E000039002966846FFF787FE09B0F0BD6F7081
:10F6F000FBE70000FFFF0000782000207CB50546F6
:10F7000016460C46084600F011F800200321009030
:10F71000890301906818611880B289B26B4632463D
:10F72000FDF74AFC002800D005207CBD07280BD03F
:10F73000012809D0082807D0052805D0062803D0BD
:10F74000042801D0002070470120704710B55024D4
:10F7500063439BB28170DB1C99084260018010BD3D
:10F7600010B50249FDF792F810BD000020280020D6
:10F7700010B504460648844207D006492046FDF7E6
:10F7800085F8A04201D1012010BD002010BD00006D
:10F79000FFFF00004028002010B50446044900F097
:10F7A000D5FE03492046203100F0D0FE10BD0000F8
:10F7B0002028002010B50249FFF718F810BD0000FE
:10F7C0004028002070B50A49FFF710F80446094D9B
:10F7D00008E000F031F8002807D005492046FFF77F
:10F7E00005F80446AC42F4D170BD204670BD00005F
:10F7F00020280020FFFF000010B508484021FBF73B
:10F80000B4FCFF2401342146044800F0FDF903480C
:10F810002146203000F0F8F910BD0000202800201B
:10F8200010B5FF2804D80146024800F01DFA10BDAB
:10F83000002010BD2028002010B5FF2804D8014664
:10F84000024800F011FA10BD002010BD4028002031
:10F8500010B50C46FDF7DAFFFF2803D00C21484312
:10F8600001490C5210BD00008024002003218903AF
:10F87000401880B2704700001CB5044600F082F9C1
:10F88000002801D0FCF720F8002C05D000F088FB00
:10F89000002801D0FCF718F800200090019068467D
:10F8A0000078012210438121084030304106490E82
:10F8B000684601700721417010218170C1780223D0
:10F8C00011431943C170017911431943017100F0CB
:10F8D0009DFB002801D0FBF7F7FF044800F07EFBFA
:10F8E000002801D0FBF7F0FF1CBD000039FA010031
:10F8F0000449081820214156042901DB01207047E2
:10F9000000207047C02800200449081820214156D3
:10F91000042901D20120704700207047C028002030
:10F92000F8B50F46060028D03068002825D070684A
:10F93000002822D0FF2400251CE02946706800F032
:10F940006BF9002808D0FF2C00D12C46281B401C46
:10F95000B8420DD12046F8BDFF2C06D108E0214663
:10F96000304600F044F8641CE4B2AC42F7D3FF2404
:10F970006D1CEDB2B068A842DFD8FF20F8BDF8B525
:10F980000400069E089D079818D0002916D0002B69
:10F9900014D007466F43974210D8C21DD208B24216
:10F9A0000CD800280AD0002D08D0E560A0600AC459
:10F9B00081B2184600F028F90020F8BD0720F8BDF4
:10F9C00070B504000D4610D0206800280DD0606886
:10F9D00000280AD0FF2D08D000F046F9002804D0F6
:10F9E000E06821686843081870BD002070BD70B5DC
:10F9F00004000D460FD0206800280CD06068002855
:10FA000009D0FF2D07D000F02FF9002803D0294698
:10FA1000606800F035F970BD10B501F0E5F810BD73
:10FA200010B5044A1278002A02D001F013F910BD73
:10FA3000082010BD8C20002008B501780B00FBF7D2
:10FA40005DFD0F091209131E2532122C12322E32BF
:10FA500012341200808800F0EBF9112803D000283E
:10FA600001D0FBF731FF08BD4189114AD142FAD1DB
:10FA700040880121FFF7D4FF0828F0D108BD0021FC
:10FA8000009140886946FFF7C7FF08BDFDF70AFAF5
:10FA90000E28FAD00828F8D0E1E70020E1E703209B
:10FAA000FCF78EF9DBE78068D9E700F0A3F808BD22
:10FAB000FAEFFFFF70B586B0044614216846FBF7E5
:10FAC00054FB608869468880FEF77CF86946488068
:10FAD000267800200822072105253300FBF70EFDBC
:10FAE0000A06060B0D0F1416281A1D256B461970F1
:10FAF00058721A7219E00D2009E00E2007E06A46DC
:10FB000011705072157210E00F2000E0102069464D
:10FB100008700AE06846057007E006216846017033
:10FB2000A0680290A188684641806846FDF7DEF82B
:10FB300006B070BD10B50446007886B000281AD013
:10FB4000012816D10E49608801224979FCF718FB7B
:10FB500014216846FBF709FB608869464880608885
:10FB6000FEF7FCF869468880002008706846FDF7BB
:10FB7000BDF806B010BDE08800F04EF9F9E70000CE
:10FB80008C20002070B5FFF73DFC00282ED1FFF738
:10FB9000FDF900282AD101F035F8002826D101F01E
:10FBA00043F9002822D1FDF7DFFD00281ED1FDF723
:10FBB00097FE00281AD1FEF71BF8002816D10C4C2E
:10FBC000401EE08000251820A56020716071FCF7C0
:10FBD000A1FA2071182809D0FCF79CFA6071182846
:10FBE00004D0657001202070002070BD032070BD1E
:10FBF0008C20002010B503480078002801D0FDF7C4
:10FC0000D7FD10BD8C20002010B5002803D0C91DE1
:10FC1000C908FBF7AAFA10BD10B5002809D04B0798
:10FC20005B0F01229A40C908D2B208181146FEF7AC
:10FC300069FC10BDF8B50D46060013D0002401275D
:10FC40000EE06107490F38468840C1B2E0088019CC
:10FC5000FEF758FC002801D02046F8BD641CA4B271
:10FC6000AC42EED32846F8BD002807D0CA08805C15
:10FC70004A07520F01219140084000D001207047EF
:10FC8000F8B504464805050E4907490F012088408C
:10FC9000C6B2002C0ED0605D30420BD00021684609
:10FCA0000170FBF7C5FE605DB043605568460078A3
:10FCB000FBF7DCFEF8BD000010B5044606480078EE
:10FCC000002808D02046FDF729FF204600F082FFDB
:10FCD0002046FDF787FC10BD8C200020F0B58BB0CE
:10FCE000044614216846FBF740FA6088694688801C
:10FCF000FDF768FF69464880277801200822072120
:10FD00000026434D3B00FBF7F9FB0A060E20353B6E
:10FD1000435F80787A806A46117021791172567239
:10FD2000039690726EE06A461170217911725672D4
:10FD3000A16803919072A868002863D0A1688142ED
:10FD400060D1AE609088E88012E068460270217948
:10FD500001724672A0680390E0680490A8680028C9
:10FD600050D0A16881424DD1AE60E868401EE86085
:10FD7000039647E06A461170217911725072F7E7D5
:10FD800069460A7022790A724872A068049039E0C4
:10FD9000092069460870A878002833D01D4C2046F9
:10FDA000FFF71EF9A0422DD12046FFF715F9A0421A
:10FDB00028D1AE70142105A8FBF7D7F90B216846AE
:10FDC00001750483C48214E00A2069460870A068A3
:10FDD0000290A878002815D0AE70142105A8FBF772
:10FDE000C4F90C20694608750A480883C882A068CF
:10FDF000079005A8FCF77AFF04E0052000E0062044
:10FE0000694608706846FCF771FF0BB0F0BD000052
:10FE10008C200020FFFF000010B50449097800295C
:10FE200002D0FDF785FF10BD082010BD8C200020FA
:10FE3000F0B52D4C0646207887B0002808D02B4915
:10FE40008868C968069105906078002803D00FE0A3
:10FE5000082007B0F0BD244900230C311A46881F42
:10FE600000F046F8002801D0052801D1012060707B
:10FE70006078A168401E084301D0112531E0E08878
:10FE80000027864219D1E068002816D000251421E9
:10FE90006846FBF76AF90721684601703046FDF7AE
:10FEA00091FE0146684641808680062101724772B4
:10FEB00003978772FCF71AFF13E0E0680A4A401CB8
:10FEC000E060083205A93046FFF75EF9050008D06A
:10FED000A760E068401EE060112D02D0042D00D024
:10FEE00003252846B5E700008C2000208019020079
:10FEF000FFB5284885B00078002816D0264E304639
:10FF0000FFF76EF8009000200390244801AA0068D3
:10FF1000019003A8029006210098FFF703F900253D
:10FF20006C1E3746072803D016E0082009B0F0BD44
:10FF30000520FBE700200390A84201D3009F05465F
:10FF4000A04201D2009E04460098FFF749F801AA9A
:10FF500006210090FFF7E6F8002817D00528E9D021
:10FF60000D490098884213D105990020002900D03E
:10FF70000F800699002900D00D600799002900D054
:10FF80000E8008990029D1D00C60CFE70398D3E701
:10FF90000320CBE78C200020FFFF00008019020027
:10FFA00070B50C480178002904D001210A4D8170F8
:10FFB000284608E0082070BDFFF72EFF002801D07A
:10FFC000032070BD2046FFF70BF80446A842F3D18A
:10FFD000002070BD8C200020FFFF000010B5094AF2
:10FFE0001178002904D0D178032903D3042010BD4F
:10FFF000082010BD8B00044C491CE050D17000203B
:020000040002F8
:1000000010BD00008C2000206028002010B504499D
:100010000978002902D000F03FFE10BD082010BD75
:100020008C200020F0B585B00446012614216846D6
:10003000FBF79BF86088694648804B4F2078002585
:1000400039797A790300FBF759FA0D828D081C3053
:10005000424C5159646A6C7E820001206A461070DD
:100060002079002801D0012200E00022012806D0DA
:1000700000256088FCF784F860882A4611E0012595
:10008000F7E702206A4610702079002801D001208D
:1000900000E00220107260880122FCF771F82279DA
:1000A00060887979FCF76CF852E0032069460870A3
:1000B00060881146FCF752F8002801D0012100E0C9
:1000C000022168460172A1790173A18839E0608834
:1000D000FCF744F8002845D10220694608700D72EB
:1000E00036E00321684601700572ECE70720694697
:1000F0000870A2888A8008724D7230E00821684634
:100100000170A1888180072101724572A068049066
:1001100025E00620694608706068029018E0052016
:1001200012E003206946087060881146FCF716F853
:10013000002801D0012100E00221684601720B492C
:100140000573418104E004206946087000E0002640
:100150006088FDF703FE69468880002E02D068465D
:10016000FCF7C4FD05B0F0BD8C200020011100009B
:100170000848416E491E416604D10749FD230A78AB
:100180001A400A70016E491C0166042901D1002140
:1001900001667047602A00201021002070B50C49CC
:1001A0000446486E042810D00A6E1218042A00D3A0
:1001B000121F401C48661820424355180146284625
:1001C000FAF7D3FF0120256070BD002070BD00004C
:1001D000602A0020F0B52B4C1C22216F85B05143C2
:1001E0000D192978284E00270B00FBF787F907190E
:1001F0000509090D0D1119002946FDF7E1FD09E07A
:10020000294601F0D9FA05E02946FCF741FC01E056
:10021000FDF7FEF800282FD0B04202D1019710E080
:100220000F2001902878022801D0032809D1154811
:10023000AA7D7830016C89180164AA7D416C891A05
:10024000416469462846FCF7DDFC6846FCF710FD72
:10025000206F1C2148430019FAF787FF606F0028C0
:100260000CD0216F491C8907890F2167401E6067E8
:1002700004D00020FFF7AEFF05B0F0BD0420FCF76E
:100280005BFFF9E7702900201D1D000010B518481C
:100290001822016E51430C18406E00281FD0207A9E
:1002A000012802D0022816D10FE0A18AE08A091A9B
:1002B000FF2901DC8AB201E0FF220132E1688000FF
:1002C00023690918181829DF01E0A08928DF1128FF
:1002D00006D0002803D00921204600F00BFB10BDFA
:1002E0000449FD220878104004221043087010BD14
:1002F000602A00201021002010B505480078400732
:1003000005D40420FCF732FF0020FFF763FF10BD87
:10031000F820002010B5054801784A07920F04D153
:10032000022211430170FFF7B1FF10BD1021002020
:10033000F8B507461D481C46007815460E4680074E
:1003400001D40220F8BD002D01D0002C28D10520B9
:10035000F8BD01011648405C00281ED116E0206857
:10036000002F03D081883A8891420FD1002E03D00C
:1003700001883288914209D18068286020686860CD
:100380000B482030008928810020F8BDA088214634
:1003900000F060F80028E2D12060A088401CA08016
:1003A000A0880228D5D30A20F8BD0000F82000203C
:1003B000302A0020F8B505464068244F00260C4638
:1003C000002828D022490A68824224D849688142FC
:1003D00021D3FDF7D2FD00281DD028893989884214
:1003E00019D103CD083D8A68904214D13A460020C5
:1003F000203A0125AD0203019B185B688B4204D2B1
:100400005B198B4201D9208011E0401C80B2022888
:10041000F1D30020F8BD268000960AE000982968F4
:100420008068884205D10098686038892881012059
:10043000F8BD2088694600F00DF80028EED120882C
:10044000401C80B220800228E6D3E2E7502A002038
:100450002C210020F8B50E460A6812490001451803
:10046000002A04D05088800084180C3401E06C68A5
:1004700008340127BF026868C019A0420FD920685C
:10048000401C0CD02046FDF705FB002802D00120BF
:100490003460F8BD6088800004190C34EBE700205C
:1004A000F8BD0000302A002008B500210091014667
:1004B0000123044A0448FCF735FF002800D00E2031
:1004C00008BD0000E01902002C210020032189034F
:1004D000401AC0B27047000003218903401A034943
:1004E000884201D80120704700207047FE3F00007D
:1004F00038B5044613480025436C002B08D0026C25
:10050000D500521C52072D18520F5B1E4364026423
:1005100000200090A08AAB88800041180A482A6811
:10052000FCF700FFA18AAA888918A182A17D491E33
:100530000906090EA17501D101212174002800D0FE
:100540000E2038BDE82900202C21002010B50A46D5
:10055000FF2803D801461046FFF792FB10BD0000AC
:1005600070B501240B49600408600B494010886095
:10057000094940398860094D6C602F20FEF758F911
:10058000AC60074D00242F20AC60FEF751F9AC7031
:1005900070BD000080E100E0401301400010014008
:1005A000CC20002030B5FF220523CD7D0024093268
:1005B0001B02C318002D8450986905D04B7ECA6871
:1005C000D054487E401C487630BD1FB501246B4690
:1005D0001C701972019206C8684690471FBD000042
:1005E00010B50446FAF7A6FF00280CD0A007C00EED
:1005F000002C0ADA2107090F08398908144A8900F2
:100600008918C96906E0134810BDA108124A89007B
:1006100089180968C1400806800F042811D20028F3
:100620000FD002280DD00D494B68E206D20E0120F2
:100630009040002B08D0620992008B5803438B50E6
:1006400004E00448401C10BD05490860002010BDAE
:1006500000ED00E00120000000E400E0F0200020B8
:1006600000E100E070B5049D002819D0002917D0E2
:10067000002A15D000246600865B9E4211D100201E
:100680000123A3400AE0002D03D00C1826781E4356
:1006900002E00C1826789E432670401C9042F2D34C
:1006A00070BD641C082CE6D370BD000070B5054613
:1006B00000242146284600F00DF8002801D02046ED
:1006C00070BD641CA4B2082CF3D3014870BD0000B7
:1006D000FFFF000001228A40024201D00120704742
:1006E0000020704710B50C4603000CD000204100DC
:1006F000595A914204D181B22046FFF7EBFF10BD59
:10070000401C0828F3D3002010BDF7B5002086B0A8
:1007100017460D460090002913D000246E46A1B262
:100720003846FFF7D7FF002808D00099600049003D
:10073000285A891988800098401C0090641C082C55
:10074000EDD3142269460698FAF7F6FC09B0F0BD1D
:1007500008B5009313460122FFF784FF08BD00008F
:10076000F0B5054687B00C3000270090FDF706FB7A
:100770000646264C28886946C880A64203D12888A8
:10078000FDF7ECFA0646A64213D004AA072130462C
:10079000FEF7D0FC00280CD1059C3434207CC00727
:1007A00006D1204612300099FDF770FA002800D0DB
:1007B0002746002328881A46394686DF002808D0B5
:1007C00009216A461171029001A8FCF7A3FA07B04B
:1007D000F0BD0024002F0BD02888002100F07CF809
:1007E0000094012228880023314600F04FF8EEE7FC
:1007F00006216846017106490181847201A8FCF74F
:1008000089FA0094002328881A46EDE7FFFF0000CC
:1008100006100000002835D00278910701D4D109D4
:100820002FD15106490F04292BD8930703D503294B
:1008300001D1D10925D041788378994221D807295F
:100840001FD3102B1DD8C1784B071AD4007943074A
:1008500017D40B0715D4030713D4D20702D0CA0745
:1008600009D010E0CA070CD189070AD4C10708D102
:10087000800706D407E0890705D4C10703D18007A4
:1008800001D400207047012070470000FFB581B0FF
:10089000104D1F46164629780A9C0198FBF770FCFC
:1008A000002E11D03A4669780198FBF769FC224680
:1008B000A9780198FBF764FC002C03D002990198F9
:1008C000FDF7FAF905B0F0BD002CFBD00298FDF75A
:1008D0002FFAF7E79C2000203EB5054C6D461CCC56
:1008E0001CC56A46508011716846FCF713FA3EBD7C
:1008F000981902001FB50022009201920292039201
:10090000037A012B02D0022B11D106E06B461A703C
:1009100002690292828A9A8109E001236A46137071
:100920008289C389D31A6A461381838953814268B5
:10093000019200688268684690471FBDF0B5144D6B
:100940008BB0E878FBF7FEFB00281FD005A8FBF76B
:100950002DFB142205A96846FAF7EEFB00246F462A
:1009600011E06000C619B088E978FBF7F7FB0028B2
:1009700008D0B0882979FBF7F1FB002802D1B088B4
:1009800000F02AF8641C0098A042EAD80BB0F0BD31
:10099000542000207CB50D490D4C03C901910090F5
:1009A00000226946A088FEF7EFFB0A4D07E00846E3
:1009B000FEF716FBA08000226946FEF7E5FBA18842
:1009C000A94201D01128F2D17CBD00004C190200CF
:1009D00060200020FFFF0000FEB506460125002430
:1009E000FDF742F811281ED006DC002827D0062883
:1009F00031D008280AD12EE01A49411813D01A4ADA
:100A0000D14203D13046FDF705FD0CE009226946CD
:100A10000A708E8002903046FDF7A0F96946488042
:100A20006846FCF74FF92A46104D3046E978FBF747
:100A3000A7FB224629793046FBF7A2FBFEBD052124
:100A40006846017001243046FDF788F90146684682
:100A500041808680E5E700253046FDF77FF9FCF709
:100A600031FFE0E7FECFFFFF01FCFFFF5420002035
:100A7000FFB50746806A81B0144600283DD00025A6
:100A800038462030009033E00C20B96A68430E18D5
:100A9000B088801CFE2802D90C2005B0F0BD228849
:100AA0000299401C885420881622401C80B2208065
:100AB00002990A542088401C80B220800299411873
:100AC000308800F0BAFC2188401880B22080B288BB
